old  14: if upper('&3') = 'D' then
new  14: if upper('D') = 'D' then
old  47: where table_name = upper('&1')
new  47: where table_name = upper('T1')
old  48: and column_id = col_idx+1 and owner='&2';
new  48: and column_id = col_idx+1 and owner='VDESAI';
old  67: elsif upper('&3') = 'I' then
new  67: elsif upper('D') = 'I' then
old 104: and dic.index_name='&1'
new 104: and dic.index_name='T1'
old 105: and dtc.owner='&2'
new 105: and dtc.owner='VDESAI'
-----------------------------------                                                                                                                                                                    
-----------------------------------                                                                                                                                                                    
-----------------------------------                                                                                                                                                                    
-----------------------------------                                                                                                                                                                    
-------NEW BLOCK DUMP STACK--------                                                                                                                                                                    
-----------------------------------                                                                                                                                                                    
-----------------------------------                                                                                                                                                                    
-----------------------------------                                                                                                                                                                    
-----------------------------------                                                                                                                                                                    
Block header dump:  0x0600003b                                                                                                                                                                          
Object id on Block? Y                                                                                                                                                                                   
seg/obj: 0x4a82  csc: 0x00.27b80d  itc: 4  flg: E  typ: 1 - DATA                                                                                                                                        
brn: 0  bdba: 0x6000004 ver: 0x01 opc: 0                                                                                                                                                                
inc: 0  exflg: 0                                                                                                                                                                                        
Itl           Xid                  Uba         Flag  Lck        Scn/Fsc                                                                                                                                 
0x01   0x0007.028.000001e3  0x00c00d1b.0056.0b  --U-    4  fsc 0x0000.0027b80f                                                                                                                          
0x02   0x0000.000.00000000  0x00000000.0000.00  ----    0  fsc 0x0000.00000000                                                                                                                          
0x03   0x0000.000.00000000  0x00000000.0000.00  C---    0  scn 0x0000.00000000                                                                                                                          
0x04   0x0000.000.00000000  0x00000000.0000.00  C---    0  scn 0x0000.00000000                                                                                                                          
bdba: 0x0600003b                                                                                                                                                                                        
data_block_dump,data header at 0x110988294                                                                                                                                                              
===============                                                                                                                                                                                         
tsiz: 0x3f68                                                                                                                                                                                            
hsiz: 0x1a                                                                                                                                                                                              
pbl: 0x110988294                                                                                                                                                                                        
76543210                                                                                                                                                                                                
flag=--------                                                                                                                                                                                           
ntab=1                                                                                                                                                                                                  
nrow=4                                                                                                                                                                                                  
frre=-1                                                                                                                                                                                                 
fsbo=0x1a                                                                                                                                                                                               
fseo=0x3392                                                                                                                                                                                             
avsp=0x3378                                                                                                                                                                                             
tosp=0x3378                                                                                                                                                                                             
0xe:pti[0]	nrow=4	offs=0                                                                                                                                                                                
0x12:pri[0]	offs=0x3c68                                                                                                                                                                                 
0x14:pri[1]	offs=0x3962                                                                                                                                                                                 
0x16:pri[2]	offs=0x365c                                                                                                                                                                                 
0x18:pri[3]	offs=0x3392                                                                                                                                                                                 
block_row_dump:                                                                                                                                                                                         
tab 0, row 0, @0x3c68                                                                                                                                                                                   
tl: 768 fb: -----L-- lb: 0x1  cc: 255                                                                                                                                                                   
col  0: [ 2]  c1 04---- means COL000 = 3                                                                                                                                                                
col  1: [ 2]  c1 04---- means COL001 = 3                                                                                                                                                                
col  2: [ 2]  c1 04---- means COL002 = 3                                                                                                                                                                
col  3: [ 2]  c1 04---- means COL003 = 3                                                                                                                                                                
col  4: [ 2]  c1 04---- means COL004 = 3                                                                                                                                                                
col  5: [ 2]  c1 04---- means COL005 = 3                                                                                                                                                                
col  6: [ 2]  c1 04---- means COL006 = 3                                                                                                                                                                
col  7: [ 2]  c1 04---- means COL007 = 3                                                                                                                                                                
col  8: [ 2]  c1 04---- means COL008 = 3                                                                                                                                                                
col  9: [ 2]  c1 04---- means COL009 = 3                                                                                                                                                                
col 10: [ 2]  c1 04---- means COL000 = 3                                                                                                                                                                
col 11: [ 2]  c1 04---- means COL001 = 3                                                                                                                                                                
col 12: [ 2]  c1 04---- means COL002 = 3                                                                                                                                                                
col 13: [ 2]  c1 04---- means COL003 = 3                                                                                                                                                                
col 14: [ 2]  c1 04---- means COL004 = 3                                                                                                                                                                
col 15: [ 2]  c1 04---- means COL005 = 3                                                                                                                                                                
col 16: [ 2]  c1 04---- means COL006 = 3                                                                                                                                                                
col 17: [ 2]  c1 04---- means COL007 = 3                                                                                                                                                                
col 18: [ 2]  c1 04---- means COL008 = 3                                                                                                                                                                
col 19: [ 2]  c1 04---- means COL009 = 3                                                                                                                                                                
col 20: [ 2]  c1 05---- means COL000 = 4                                                                                                                                                                
col 21: [ 2]  c1 05---- means COL001 = 4                                                                                                                                                                
col 22: [ 2]  c1 05---- means COL002 = 4                                                                                                                                                                
col 23: [ 2]  c1 05---- means COL003 = 4                                                                                                                                                                
col 24: [ 2]  c1 05---- means COL004 = 4                                                                                                                                                                
col 25: [ 2]  c1 05---- means COL005 = 4                                                                                                                                                                
col 26: [ 2]  c1 05---- means COL006 = 4                                                                                                                                                                
col 27: [ 2]  c1 05---- means COL007 = 4                                                                                                                                                                
col 28: [ 2]  c1 05---- means COL008 = 4                                                                                                                                                                
col 29: [ 2]  c1 05---- means COL009 = 4                                                                                                                                                                
col 30: [ 2]  c1 05---- means COL000 = 4                                                                                                                                                                
col 31: [ 2]  c1 05---- means COL001 = 4                                                                                                                                                                
col 32: [ 2]  c1 05---- means COL002 = 4                                                                                                                                                                
col 33: [ 2]  c1 05---- means COL003 = 4                                                                                                                                                                
col 34: [ 2]  c1 05---- means COL004 = 4                                                                                                                                                                
col 35: [ 2]  c1 05---- means COL005 = 4                                                                                                                                                                
col 36: [ 2]  c1 05---- means COL006 = 4                                                                                                                                                                
col 37: [ 2]  c1 05---- means COL007 = 4                                                                                                                                                                
col 38: [ 2]  c1 05---- means COL008 = 4                                                                                                                                                                
col 39: [ 2]  c1 05---- means COL009 = 4                                                                                                                                                                
col 40: [ 2]  c1 05---- means COL000 = 4                                                                                                                                                                
col 41: [ 2]  c1 05---- means COL001 = 4                                                                                                                                                                
col 42: [ 2]  c1 05---- means COL002 = 4                                                                                                                                                                
col 43: [ 2]  c1 05---- means COL003 = 4                                                                                                                                                                
col 44: [ 2]  c1 05---- means COL004 = 4                                                                                                                                                                
col 45: [ 2]  c1 05---- means COL005 = 4                                                                                                                                                                
col 46: [ 2]  c1 05---- means COL006 = 4                                                                                                                                                                
col 47: [ 2]  c1 05---- means COL007 = 4                                                                                                                                                                
col 48: [ 2]  c1 05---- means COL008 = 4                                                                                                                                                                
col 49: [ 2]  c1 05---- means COL009 = 4                                                                                                                                                                
col 50: [ 2]  c1 05---- means COL000 = 4                                                                                                                                                                
col 51: [ 2]  c1 05---- means COL001 = 4                                                                                                                                                                
col 52: [ 2]  c1 05---- means COL002 = 4                                                                                                                                                                
col 53: [ 2]  c1 05---- means COL003 = 4                                                                                                                                                                
col 54: [ 2]  c1 05---- means COL004 = 4                                                                                                                                                                
col 55: [ 2]  c1 05---- means COL005 = 4                                                                                                                                                                
col 56: [ 2]  c1 05---- means COL006 = 4                                                                                                                                                                
col 57: [ 2]  c1 05---- means COL007 = 4                                                                                                                                                                
col 58: [ 2]  c1 05---- means COL008 = 4                                                                                                                                                                
col 59: [ 2]  c1 05---- means COL009 = 4                                                                                                                                                                
col 60: [ 2]  c1 05---- means COL000 = 4                                                                                                                                                                
col 61: [ 2]  c1 05---- means COL001 = 4                                                                                                                                                                
col 62: [ 2]  c1 05---- means COL002 = 4                                                                                                                                                                
col 63: [ 2]  c1 05---- means COL003 = 4                                                                                                                                                                
col 64: [ 2]  c1 05---- means COL004 = 4                                                                                                                                                                
col 65: [ 2]  c1 05---- means COL005 = 4                                                                                                                                                                
col 66: [ 2]  c1 05---- means COL006 = 4                                                                                                                                                                
col 67: [ 2]  c1 05---- means COL007 = 4                                                                                                                                                                
col 68: [ 2]  c1 05---- means COL008 = 4                                                                                                                                                                
col 69: [ 2]  c1 05---- means COL009 = 4                                                                                                                                                                
col 70: [ 2]  c1 05---- means COL000 = 4                                                                                                                                                                
col 71: [ 2]  c1 05---- means COL001 = 4                                                                                                                                                                
col 72: [ 2]  c1 05---- means COL002 = 4                                                                                                                                                                
col 73: [ 2]  c1 05---- means COL003 = 4                                                                                                                                                                
col 74: [ 2]  c1 05---- means COL004 = 4                                                                                                                                                                
col 75: [ 2]  c1 05---- means COL005 = 4                                                                                                                                                                
col 76: [ 2]  c1 05---- means COL006 = 4                                                                                                                                                                
col 77: [ 2]  c1 05---- means COL007 = 4                                                                                                                                                                
col 78: [ 2]  c1 05---- means COL008 = 4                                                                                                                                                                
col 79: [ 2]  c1 05---- means COL009 = 4                                                                                                                                                                
col 80: [ 2]  c1 05---- means COL000 = 4                                                                                                                                                                
col 81: [ 2]  c1 05---- means COL001 = 4                                                                                                                                                                
col 82: [ 2]  c1 05---- means COL002 = 4                                                                                                                                                                
col 83: [ 2]  c1 05---- means COL003 = 4                                                                                                                                                                
col 84: [ 2]  c1 05---- means COL004 = 4                                                                                                                                                                
col 85: [ 2]  c1 05---- means COL005 = 4                                                                                                                                                                
col 86: [ 2]  c1 05---- means COL006 = 4                                                                                                                                                                
col 87: [ 2]  c1 05---- means COL007 = 4                                                                                                                                                                
col 88: [ 2]  c1 05---- means COL008 = 4                                                                                                                                                                
col 89: [ 2]  c1 05---- means COL009 = 4                                                                                                                                                                
col 90: [ 2]  c1 05---- means COL000 = 4                                                                                                                                                                
col 91: [ 2]  c1 05---- means COL001 = 4                                                                                                                                                                
col 92: [ 2]  c1 05---- means COL002 = 4                                                                                                                                                                
col 93: [ 2]  c1 05---- means COL003 = 4                                                                                                                                                                
col 94: [ 2]  c1 05---- means COL004 = 4                                                                                                                                                                
col 95: [ 2]  c1 05---- means COL005 = 4                                                                                                                                                                
col 96: [ 2]  c1 05---- means COL006 = 4                                                                                                                                                                
col 97: [ 2]  c1 05---- means COL007 = 4                                                                                                                                                                
col 98: [ 2]  c1 05---- means COL008 = 4                                                                                                                                                                
col 99: [ 2]  c1 05---- means COL009 = 4                                                                                                                                                                
col 100: [ 2]  c1 05---- means COL000 = 4                                                                                                                                                               
col 101: [ 2]  c1 05---- means COL001 = 4                                                                                                                                                               
col 102: [ 2]  c1 05---- means COL002 = 4                                                                                                                                                               
col 103: [ 2]  c1 05---- means COL003 = 4                                                                                                                                                               
col 104: [ 2]  c1 05---- means COL004 = 4                                                                                                                                                               
col 105: [ 2]  c1 05---- means COL005 = 4                                                                                                                                                               
col 106: [ 2]  c1 05---- means COL006 = 4                                                                                                                                                               
col 107: [ 2]  c1 05---- means COL007 = 4                                                                                                                                                               
col 108: [ 2]  c1 05---- means COL008 = 4                                                                                                                                                               
col 109: [ 2]  c1 05---- means COL009 = 4                                                                                                                                                               
col 110: [ 2]  c1 05---- means COL000 = 4                                                                                                                                                               
col 111: [ 2]  c1 05---- means COL001 = 4                                                                                                                                                               
col 112: [ 2]  c1 05---- means COL002 = 4                                                                                                                                                               
col 113: [ 2]  c1 05---- means COL003 = 4                                                                                                                                                               
col 114: [ 2]  c1 05---- means COL004 = 4                                                                                                                                                               
col 115: [ 2]  c1 05---- means COL005 = 4                                                                                                                                                               
col 116: [ 2]  c1 05---- means COL006 = 4                                                                                                                                                               
col 117: [ 2]  c1 05---- means COL007 = 4                                                                                                                                                               
col 118: [ 2]  c1 05---- means COL008 = 4                                                                                                                                                               
col 119: [ 2]  c1 05---- means COL009 = 4                                                                                                                                                               
col 120: [ 2]  c1 05---- means COL000 = 4                                                                                                                                                               
col 121: [ 2]  c1 05---- means COL001 = 4                                                                                                                                                               
col 122: [ 2]  c1 05---- means COL002 = 4                                                                                                                                                               
col 123: [ 2]  c1 05---- means COL003 = 4                                                                                                                                                               
col 124: [ 2]  c1 05---- means COL004 = 4                                                                                                                                                               
col 125: [ 2]  c1 05---- means COL005 = 4                                                                                                                                                               
col 126: [ 2]  c1 05---- means COL006 = 4                                                                                                                                                               
col 127: [ 2]  c1 05---- means COL007 = 4                                                                                                                                                               
col 128: [ 2]  c1 05---- means COL008 = 4                                                                                                                                                               
col 129: [ 2]  c1 05---- means COL009 = 4                                                                                                                                                               
col 130: [ 2]  c1 05---- means COL000 = 4                                                                                                                                                               
col 131: [ 2]  c1 05---- means COL001 = 4                                                                                                                                                               
col 132: [ 2]  c1 05---- means COL002 = 4                                                                                                                                                               
col 133: [ 2]  c1 05---- means COL003 = 4                                                                                                                                                               
col 134: [ 2]  c1 05---- means COL004 = 4                                                                                                                                                               
col 135: [ 2]  c1 05---- means COL005 = 4                                                                                                                                                               
col 136: [ 2]  c1 05---- means COL006 = 4                                                                                                                                                               
col 137: [ 2]  c1 05---- means COL007 = 4                                                                                                                                                               
col 138: [ 2]  c1 05---- means COL008 = 4                                                                                                                                                               
col 139: [ 2]  c1 05---- means COL009 = 4                                                                                                                                                               
col 140: [ 2]  c1 05---- means COL000 = 4                                                                                                                                                               
col 141: [ 2]  c1 05---- means COL001 = 4                                                                                                                                                               
col 142: [ 2]  c1 05---- means COL002 = 4                                                                                                                                                               
col 143: [ 2]  c1 05---- means COL003 = 4                                                                                                                                                               
col 144: [ 2]  c1 05---- means COL004 = 4                                                                                                                                                               
col 145: [ 2]  c1 05---- means COL005 = 4                                                                                                                                                               
col 146: [ 2]  c1 05---- means COL006 = 4                                                                                                                                                               
col 147: [ 2]  c1 05---- means COL007 = 4                                                                                                                                                               
col 148: [ 2]  c1 05---- means COL008 = 4                                                                                                                                                               
col 149: [ 2]  c1 05---- means COL009 = 4                                                                                                                                                               
col 150: [ 2]  c1 05---- means COL000 = 4                                                                                                                                                               
col 151: [ 2]  c1 05---- means COL001 = 4                                                                                                                                                               
col 152: [ 2]  c1 05---- means COL002 = 4                                                                                                                                                               
col 153: [ 2]  c1 05---- means COL003 = 4                                                                                                                                                               
col 154: [ 2]  c1 05---- means COL004 = 4                                                                                                                                                               
col 155: [ 2]  c1 05---- means COL005 = 4                                                                                                                                                               
col 156: [ 2]  c1 05---- means COL006 = 4                                                                                                                                                               
col 157: [ 2]  c1 05---- means COL007 = 4                                                                                                                                                               
col 158: [ 2]  c1 05---- means COL008 = 4                                                                                                                                                               
col 159: [ 2]  c1 05---- means COL009 = 4                                                                                                                                                               
col 160: [ 2]  c1 05---- means COL000 = 4                                                                                                                                                               
col 161: [ 2]  c1 05---- means COL001 = 4                                                                                                                                                               
col 162: [ 2]  c1 05---- means COL002 = 4                                                                                                                                                               
col 163: [ 2]  c1 05---- means COL003 = 4                                                                                                                                                               
col 164: [ 2]  c1 05---- means COL004 = 4                                                                                                                                                               
col 165: [ 2]  c1 05---- means COL005 = 4                                                                                                                                                               
col 166: [ 2]  c1 05---- means COL006 = 4                                                                                                                                                               
col 167: [ 2]  c1 05---- means COL007 = 4                                                                                                                                                               
col 168: [ 2]  c1 05---- means COL008 = 4                                                                                                                                                               
col 169: [ 2]  c1 05---- means COL009 = 4                                                                                                                                                               
col 170: [ 2]  c1 05---- means COL000 = 4                                                                                                                                                               
col 171: [ 2]  c1 05---- means COL001 = 4                                                                                                                                                               
col 172: [ 2]  c1 05---- means COL002 = 4                                                                                                                                                               
col 173: [ 2]  c1 05---- means COL003 = 4                                                                                                                                                               
col 174: [ 2]  c1 05---- means COL004 = 4                                                                                                                                                               
col 175: [ 2]  c1 05---- means COL005 = 4                                                                                                                                                               
col 176: [ 2]  c1 05---- means COL006 = 4                                                                                                                                                               
col 177: [ 2]  c1 05---- means COL007 = 4                                                                                                                                                               
col 178: [ 2]  c1 05---- means COL008 = 4                                                                                                                                                               
col 179: [ 2]  c1 05---- means COL009 = 4                                                                                                                                                               
col 180: [ 2]  c1 05---- means COL000 = 4                                                                                                                                                               
col 181: [ 2]  c1 05---- means COL001 = 4                                                                                                                                                               
col 182: [ 2]  c1 05---- means COL002 = 4                                                                                                                                                               
col 183: [ 2]  c1 05---- means COL003 = 4                                                                                                                                                               
col 184: [ 2]  c1 05---- means COL004 = 4                                                                                                                                                               
col 185: [ 2]  c1 05---- means COL005 = 4                                                                                                                                                               
col 186: [ 2]  c1 05---- means COL006 = 4                                                                                                                                                               
col 187: [ 2]  c1 05---- means COL007 = 4                                                                                                                                                               
col 188: [ 2]  c1 05---- means COL008 = 4                                                                                                                                                               
col 189: [ 2]  c1 05---- means COL009 = 4                                                                                                                                                               
col 190: [ 2]  c1 05---- means COL000 = 4                                                                                                                                                               
col 191: [ 2]  c1 05---- means COL001 = 4                                                                                                                                                               
col 192: [ 2]  c1 05---- means COL002 = 4                                                                                                                                                               
col 193: [ 2]  c1 05---- means COL003 = 4                                                                                                                                                               
col 194: [ 2]  c1 05---- means COL004 = 4                                                                                                                                                               
col 195: [ 2]  c1 05---- means COL005 = 4                                                                                                                                                               
col 196: [ 2]  c1 05---- means COL006 = 4                                                                                                                                                               
col 197: [ 2]  c1 05---- means COL007 = 4                                                                                                                                                               
col 198: [ 2]  c1 05---- means COL008 = 4                                                                                                                                                               
col 199: [ 2]  c1 05---- means COL009 = 4                                                                                                                                                               
col 200: [ 2]  c1 05---- means COL000 = 4                                                                                                                                                               
col 201: [ 2]  c1 05---- means COL001 = 4                                                                                                                                                               
col 202: [ 2]  c1 05---- means COL002 = 4                                                                                                                                                               
col 203: [ 2]  c1 05---- means COL003 = 4                                                                                                                                                               
col 204: [ 2]  c1 05---- means COL004 = 4                                                                                                                                                               
col 205: [ 2]  c1 05---- means COL005 = 4                                                                                                                                                               
col 206: [ 2]  c1 05---- means COL006 = 4                                                                                                                                                               
col 207: [ 2]  c1 05---- means COL007 = 4                                                                                                                                                               
col 208: [ 2]  c1 05---- means COL008 = 4                                                                                                                                                               
col 209: [ 2]  c1 05---- means COL009 = 4                                                                                                                                                               
col 210: [ 2]  c1 05---- means COL000 = 4                                                                                                                                                               
col 211: [ 2]  c1 05---- means COL001 = 4                                                                                                                                                               
col 212: [ 2]  c1 05---- means COL002 = 4                                                                                                                                                               
col 213: [ 2]  c1 05---- means COL003 = 4                                                                                                                                                               
col 214: [ 2]  c1 05---- means COL004 = 4                                                                                                                                                               
col 215: [ 2]  c1 05---- means COL005 = 4                                                                                                                                                               
col 216: [ 2]  c1 05---- means COL006 = 4                                                                                                                                                               
col 217: [ 2]  c1 05---- means COL007 = 4                                                                                                                                                               
col 218: [ 2]  c1 05---- means COL008 = 4                                                                                                                                                               
col 219: [ 2]  c1 05---- means COL009 = 4                                                                                                                                                               
col 220: [ 2]  c1 05---- means COL000 = 4                                                                                                                                                               
col 221: [ 2]  c1 05---- means COL001 = 4                                                                                                                                                               
col 222: [ 2]  c1 05---- means COL002 = 4                                                                                                                                                               
col 223: [ 2]  c1 05---- means COL003 = 4                                                                                                                                                               
col 224: [ 2]  c1 05---- means COL004 = 4                                                                                                                                                               
col 225: [ 2]  c1 05---- means COL005 = 4                                                                                                                                                               
col 226: [ 2]  c1 05---- means COL006 = 4                                                                                                                                                               
col 227: [ 2]  c1 05---- means COL007 = 4                                                                                                                                                               
col 228: [ 2]  c1 05---- means COL008 = 4                                                                                                                                                               
col 229: [ 2]  c1 05---- means COL009 = 4                                                                                                                                                               
col 230: [ 2]  c1 05---- means COL000 = 4                                                                                                                                                               
col 231: [ 2]  c1 05---- means COL001 = 4                                                                                                                                                               
col 232: [ 2]  c1 05---- means COL002 = 4                                                                                                                                                               
col 233: [ 2]  c1 05---- means COL003 = 4                                                                                                                                                               
col 234: [ 2]  c1 05---- means COL004 = 4                                                                                                                                                               
col 235: [ 2]  c1 05---- means COL005 = 4                                                                                                                                                               
col 236: [ 2]  c1 05---- means COL006 = 4                                                                                                                                                               
col 237: [ 2]  c1 05---- means COL007 = 4                                                                                                                                                               
col 238: [ 2]  c1 05---- means COL008 = 4                                                                                                                                                               
col 239: [ 2]  c1 05---- means COL009 = 4                                                                                                                                                               
col 240: [ 2]  c1 05---- means COL000 = 4                                                                                                                                                               
col 241: [ 2]  c1 05---- means COL001 = 4                                                                                                                                                               
col 242: [ 2]  c1 05---- means COL002 = 4                                                                                                                                                               
col 243: [ 2]  c1 05---- means COL003 = 4                                                                                                                                                               
col 244: [ 2]  c1 05---- means COL004 = 4                                                                                                                                                               
col 245: [ 2]  c1 05---- means COL005 = 4                                                                                                                                                               
col 246: [ 2]  c1 05---- means COL006 = 4                                                                                                                                                               
col 247: [ 2]  c1 05---- means COL007 = 4                                                                                                                                                               
col 248: [ 2]  c1 05---- means COL008 = 4                                                                                                                                                               
col 249: [ 2]  c1 05---- means COL009 = 4                                                                                                                                                               
col 250: [ 2]  c1 05---- means COL000 = 4                                                                                                                                                               
col 251: [ 2]  c1 05---- means COL001 = 4                                                                                                                                                               
col 252: [ 2]  c1 05---- means COL002 = 4                                                                                                                                                               
col 253: [ 2]  c1 05---- means COL003 = 4                                                                                                                                                               
col 254: [ 2]  c1 05---- means COL004 = 4                                                                                                                                                               
tab 0, row 1, @0x3962                                                                                                                                                                                   
tl: 774 fb: -------- lb: 0x1  cc: 255                                                                                                                                                                   
nrid:  0x0600003b.0                                                                                                                                                                                     
col  0: [ 2]  c1 03---- means COL000 = 2                                                                                                                                                                
col  1: [ 2]  c1 03---- means COL001 = 2                                                                                                                                                                
col  2: [ 2]  c1 03---- means COL002 = 2                                                                                                                                                                
col  3: [ 2]  c1 03---- means COL003 = 2                                                                                                                                                                
col  4: [ 2]  c1 03---- means COL004 = 2                                                                                                                                                                
col  5: [ 2]  c1 03---- means COL005 = 2                                                                                                                                                                
col  6: [ 2]  c1 03---- means COL006 = 2                                                                                                                                                                
col  7: [ 2]  c1 03---- means COL007 = 2                                                                                                                                                                
col  8: [ 2]  c1 03---- means COL008 = 2                                                                                                                                                                
col  9: [ 2]  c1 03---- means COL009 = 2                                                                                                                                                                
col 10: [ 2]  c1 03---- means COL000 = 2                                                                                                                                                                
col 11: [ 2]  c1 03---- means COL001 = 2                                                                                                                                                                
col 12: [ 2]  c1 03---- means COL002 = 2                                                                                                                                                                
col 13: [ 2]  c1 03---- means COL003 = 2                                                                                                                                                                
col 14: [ 2]  c1 03---- means COL004 = 2                                                                                                                                                                
col 15: [ 2]  c1 03---- means COL005 = 2                                                                                                                                                                
col 16: [ 2]  c1 03---- means COL006 = 2                                                                                                                                                                
col 17: [ 2]  c1 03---- means COL007 = 2                                                                                                                                                                
col 18: [ 2]  c1 03---- means COL008 = 2                                                                                                                                                                
col 19: [ 2]  c1 03---- means COL009 = 2                                                                                                                                                                
col 20: [ 2]  c1 04---- means COL000 = 3                                                                                                                                                                
col 21: [ 2]  c1 04---- means COL001 = 3                                                                                                                                                                
col 22: [ 2]  c1 04---- means COL002 = 3                                                                                                                                                                
col 23: [ 2]  c1 04---- means COL003 = 3                                                                                                                                                                
col 24: [ 2]  c1 04---- means COL004 = 3                                                                                                                                                                
col 25: [ 2]  c1 04---- means COL005 = 3                                                                                                                                                                
col 26: [ 2]  c1 04---- means COL006 = 3                                                                                                                                                                
col 27: [ 2]  c1 04---- means COL007 = 3                                                                                                                                                                
col 28: [ 2]  c1 04---- means COL008 = 3                                                                                                                                                                
col 29: [ 2]  c1 04---- means COL009 = 3                                                                                                                                                                
col 30: [ 2]  c1 04---- means COL000 = 3                                                                                                                                                                
col 31: [ 2]  c1 04---- means COL001 = 3                                                                                                                                                                
col 32: [ 2]  c1 04---- means COL002 = 3                                                                                                                                                                
col 33: [ 2]  c1 04---- means COL003 = 3                                                                                                                                                                
col 34: [ 2]  c1 04---- means COL004 = 3                                                                                                                                                                
col 35: [ 2]  c1 04---- means COL005 = 3                                                                                                                                                                
col 36: [ 2]  c1 04---- means COL006 = 3                                                                                                                                                                
col 37: [ 2]  c1 04---- means COL007 = 3                                                                                                                                                                
col 38: [ 2]  c1 04---- means COL008 = 3                                                                                                                                                                
col 39: [ 2]  c1 04---- means COL009 = 3                                                                                                                                                                
col 40: [ 2]  c1 04---- means COL000 = 3                                                                                                                                                                
col 41: [ 2]  c1 04---- means COL001 = 3                                                                                                                                                                
col 42: [ 2]  c1 04---- means COL002 = 3                                                                                                                                                                
col 43: [ 2]  c1 04---- means COL003 = 3                                                                                                                                                                
col 44: [ 2]  c1 04---- means COL004 = 3                                                                                                                                                                
col 45: [ 2]  c1 04---- means COL005 = 3                                                                                                                                                                
col 46: [ 2]  c1 04---- means COL006 = 3                                                                                                                                                                
col 47: [ 2]  c1 04---- means COL007 = 3                                                                                                                                                                
col 48: [ 2]  c1 04---- means COL008 = 3                                                                                                                                                                
col 49: [ 2]  c1 04---- means COL009 = 3                                                                                                                                                                
col 50: [ 2]  c1 04---- means COL000 = 3                                                                                                                                                                
col 51: [ 2]  c1 04---- means COL001 = 3                                                                                                                                                                
col 52: [ 2]  c1 04---- means COL002 = 3                                                                                                                                                                
col 53: [ 2]  c1 04---- means COL003 = 3                                                                                                                                                                
col 54: [ 2]  c1 04---- means COL004 = 3                                                                                                                                                                
col 55: [ 2]  c1 04---- means COL005 = 3                                                                                                                                                                
col 56: [ 2]  c1 04---- means COL006 = 3                                                                                                                                                                
col 57: [ 2]  c1 04---- means COL007 = 3                                                                                                                                                                
col 58: [ 2]  c1 04---- means COL008 = 3                                                                                                                                                                
col 59: [ 2]  c1 04---- means COL009 = 3                                                                                                                                                                
col 60: [ 2]  c1 04---- means COL000 = 3                                                                                                                                                                
col 61: [ 2]  c1 04---- means COL001 = 3                                                                                                                                                                
col 62: [ 2]  c1 04---- means COL002 = 3                                                                                                                                                                
col 63: [ 2]  c1 04---- means COL003 = 3                                                                                                                                                                
col 64: [ 2]  c1 04---- means COL004 = 3                                                                                                                                                                
col 65: [ 2]  c1 04---- means COL005 = 3                                                                                                                                                                
col 66: [ 2]  c1 04---- means COL006 = 3                                                                                                                                                                
col 67: [ 2]  c1 04---- means COL007 = 3                                                                                                                                                                
col 68: [ 2]  c1 04---- means COL008 = 3                                                                                                                                                                
col 69: [ 2]  c1 04---- means COL009 = 3                                                                                                                                                                
col 70: [ 2]  c1 04---- means COL000 = 3                                                                                                                                                                
col 71: [ 2]  c1 04---- means COL001 = 3                                                                                                                                                                
col 72: [ 2]  c1 04---- means COL002 = 3                                                                                                                                                                
col 73: [ 2]  c1 04---- means COL003 = 3                                                                                                                                                                
col 74: [ 2]  c1 04---- means COL004 = 3                                                                                                                                                                
col 75: [ 2]  c1 04---- means COL005 = 3                                                                                                                                                                
col 76: [ 2]  c1 04---- means COL006 = 3                                                                                                                                                                
col 77: [ 2]  c1 04---- means COL007 = 3                                                                                                                                                                
col 78: [ 2]  c1 04---- means COL008 = 3                                                                                                                                                                
col 79: [ 2]  c1 04---- means COL009 = 3                                                                                                                                                                
col 80: [ 2]  c1 04---- means COL000 = 3                                                                                                                                                                
col 81: [ 2]  c1 04---- means COL001 = 3                                                                                                                                                                
col 82: [ 2]  c1 04---- means COL002 = 3                                                                                                                                                                
col 83: [ 2]  c1 04---- means COL003 = 3                                                                                                                                                                
col 84: [ 2]  c1 04---- means COL004 = 3                                                                                                                                                                
col 85: [ 2]  c1 04---- means COL005 = 3                                                                                                                                                                
col 86: [ 2]  c1 04---- means COL006 = 3                                                                                                                                                                
col 87: [ 2]  c1 04---- means COL007 = 3                                                                                                                                                                
col 88: [ 2]  c1 04---- means COL008 = 3                                                                                                                                                                
col 89: [ 2]  c1 04---- means COL009 = 3                                                                                                                                                                
col 90: [ 2]  c1 04---- means COL000 = 3                                                                                                                                                                
col 91: [ 2]  c1 04---- means COL001 = 3                                                                                                                                                                
col 92: [ 2]  c1 04---- means COL002 = 3                                                                                                                                                                
col 93: [ 2]  c1 04---- means COL003 = 3                                                                                                                                                                
col 94: [ 2]  c1 04---- means COL004 = 3                                                                                                                                                                
col 95: [ 2]  c1 04---- means COL005 = 3                                                                                                                                                                
col 96: [ 2]  c1 04---- means COL006 = 3                                                                                                                                                                
col 97: [ 2]  c1 04---- means COL007 = 3                                                                                                                                                                
col 98: [ 2]  c1 04---- means COL008 = 3                                                                                                                                                                
col 99: [ 2]  c1 04---- means COL009 = 3                                                                                                                                                                
col 100: [ 2]  c1 04---- means COL000 = 3                                                                                                                                                               
col 101: [ 2]  c1 04---- means COL001 = 3                                                                                                                                                               
col 102: [ 2]  c1 04---- means COL002 = 3                                                                                                                                                               
col 103: [ 2]  c1 04---- means COL003 = 3                                                                                                                                                               
col 104: [ 2]  c1 04---- means COL004 = 3                                                                                                                                                               
col 105: [ 2]  c1 04---- means COL005 = 3                                                                                                                                                               
col 106: [ 2]  c1 04---- means COL006 = 3                                                                                                                                                               
col 107: [ 2]  c1 04---- means COL007 = 3                                                                                                                                                               
col 108: [ 2]  c1 04---- means COL008 = 3                                                                                                                                                               
col 109: [ 2]  c1 04---- means COL009 = 3                                                                                                                                                               
col 110: [ 2]  c1 04---- means COL000 = 3                                                                                                                                                               
col 111: [ 2]  c1 04---- means COL001 = 3                                                                                                                                                               
col 112: [ 2]  c1 04---- means COL002 = 3                                                                                                                                                               
col 113: [ 2]  c1 04---- means COL003 = 3                                                                                                                                                               
col 114: [ 2]  c1 04---- means COL004 = 3                                                                                                                                                               
col 115: [ 2]  c1 04---- means COL005 = 3                                                                                                                                                               
col 116: [ 2]  c1 04---- means COL006 = 3                                                                                                                                                               
col 117: [ 2]  c1 04---- means COL007 = 3                                                                                                                                                               
col 118: [ 2]  c1 04---- means COL008 = 3                                                                                                                                                               
col 119: [ 2]  c1 04---- means COL009 = 3                                                                                                                                                               
col 120: [ 2]  c1 04---- means COL000 = 3                                                                                                                                                               
col 121: [ 2]  c1 04---- means COL001 = 3                                                                                                                                                               
col 122: [ 2]  c1 04---- means COL002 = 3                                                                                                                                                               
col 123: [ 2]  c1 04---- means COL003 = 3                                                                                                                                                               
col 124: [ 2]  c1 04---- means COL004 = 3                                                                                                                                                               
col 125: [ 2]  c1 04---- means COL005 = 3                                                                                                                                                               
col 126: [ 2]  c1 04---- means COL006 = 3                                                                                                                                                               
col 127: [ 2]  c1 04---- means COL007 = 3                                                                                                                                                               
col 128: [ 2]  c1 04---- means COL008 = 3                                                                                                                                                               
col 129: [ 2]  c1 04---- means COL009 = 3                                                                                                                                                               
col 130: [ 2]  c1 04---- means COL000 = 3                                                                                                                                                               
col 131: [ 2]  c1 04---- means COL001 = 3                                                                                                                                                               
col 132: [ 2]  c1 04---- means COL002 = 3                                                                                                                                                               
col 133: [ 2]  c1 04---- means COL003 = 3                                                                                                                                                               
col 134: [ 2]  c1 04---- means COL004 = 3                                                                                                                                                               
col 135: [ 2]  c1 04---- means COL005 = 3                                                                                                                                                               
col 136: [ 2]  c1 04---- means COL006 = 3                                                                                                                                                               
col 137: [ 2]  c1 04---- means COL007 = 3                                                                                                                                                               
col 138: [ 2]  c1 04---- means COL008 = 3                                                                                                                                                               
col 139: [ 2]  c1 04---- means COL009 = 3                                                                                                                                                               
col 140: [ 2]  c1 04---- means COL000 = 3                                                                                                                                                               
col 141: [ 2]  c1 04---- means COL001 = 3                                                                                                                                                               
col 142: [ 2]  c1 04---- means COL002 = 3                                                                                                                                                               
col 143: [ 2]  c1 04---- means COL003 = 3                                                                                                                                                               
col 144: [ 2]  c1 04---- means COL004 = 3                                                                                                                                                               
col 145: [ 2]  c1 04---- means COL005 = 3                                                                                                                                                               
col 146: [ 2]  c1 04---- means COL006 = 3                                                                                                                                                               
col 147: [ 2]  c1 04---- means COL007 = 3                                                                                                                                                               
col 148: [ 2]  c1 04---- means COL008 = 3                                                                                                                                                               
col 149: [ 2]  c1 04---- means COL009 = 3                                                                                                                                                               
col 150: [ 2]  c1 04---- means COL000 = 3                                                                                                                                                               
col 151: [ 2]  c1 04---- means COL001 = 3                                                                                                                                                               
col 152: [ 2]  c1 04---- means COL002 = 3                                                                                                                                                               
col 153: [ 2]  c1 04---- means COL003 = 3                                                                                                                                                               
col 154: [ 2]  c1 04---- means COL004 = 3                                                                                                                                                               
col 155: [ 2]  c1 04---- means COL005 = 3                                                                                                                                                               
col 156: [ 2]  c1 04---- means COL006 = 3                                                                                                                                                               
col 157: [ 2]  c1 04---- means COL007 = 3                                                                                                                                                               
col 158: [ 2]  c1 04---- means COL008 = 3                                                                                                                                                               
col 159: [ 2]  c1 04---- means COL009 = 3                                                                                                                                                               
col 160: [ 2]  c1 04---- means COL000 = 3                                                                                                                                                               
col 161: [ 2]  c1 04---- means COL001 = 3                                                                                                                                                               
col 162: [ 2]  c1 04---- means COL002 = 3                                                                                                                                                               
col 163: [ 2]  c1 04---- means COL003 = 3                                                                                                                                                               
col 164: [ 2]  c1 04---- means COL004 = 3                                                                                                                                                               
col 165: [ 2]  c1 04---- means COL005 = 3                                                                                                                                                               
col 166: [ 2]  c1 04---- means COL006 = 3                                                                                                                                                               
col 167: [ 2]  c1 04---- means COL007 = 3                                                                                                                                                               
col 168: [ 2]  c1 04---- means COL008 = 3                                                                                                                                                               
col 169: [ 2]  c1 04---- means COL009 = 3                                                                                                                                                               
col 170: [ 2]  c1 04---- means COL000 = 3                                                                                                                                                               
col 171: [ 2]  c1 04---- means COL001 = 3                                                                                                                                                               
col 172: [ 2]  c1 04---- means COL002 = 3                                                                                                                                                               
col 173: [ 2]  c1 04---- means COL003 = 3                                                                                                                                                               
col 174: [ 2]  c1 04---- means COL004 = 3                                                                                                                                                               
col 175: [ 2]  c1 04---- means COL005 = 3                                                                                                                                                               
col 176: [ 2]  c1 04---- means COL006 = 3                                                                                                                                                               
col 177: [ 2]  c1 04---- means COL007 = 3                                                                                                                                                               
col 178: [ 2]  c1 04---- means COL008 = 3                                                                                                                                                               
col 179: [ 2]  c1 04---- means COL009 = 3                                                                                                                                                               
col 180: [ 2]  c1 04---- means COL000 = 3                                                                                                                                                               
col 181: [ 2]  c1 04---- means COL001 = 3                                                                                                                                                               
col 182: [ 2]  c1 04---- means COL002 = 3                                                                                                                                                               
col 183: [ 2]  c1 04---- means COL003 = 3                                                                                                                                                               
col 184: [ 2]  c1 04---- means COL004 = 3                                                                                                                                                               
col 185: [ 2]  c1 04---- means COL005 = 3                                                                                                                                                               
col 186: [ 2]  c1 04---- means COL006 = 3                                                                                                                                                               
col 187: [ 2]  c1 04---- means COL007 = 3                                                                                                                                                               
col 188: [ 2]  c1 04---- means COL008 = 3                                                                                                                                                               
col 189: [ 2]  c1 04---- means COL009 = 3                                                                                                                                                               
col 190: [ 2]  c1 04---- means COL000 = 3                                                                                                                                                               
col 191: [ 2]  c1 04---- means COL001 = 3                                                                                                                                                               
